{
  "contractName": "SmartContract",
  "abi": [
    {
      "inputs": [
        {
          "internalType": "string",
          "name": "_name",
          "type": "string"
        },
        {
          "internalType": "string",
          "name": "_symbol",
          "type": "string"
        },
        {
          "internalType": "string",
          "name": "_initBaseURI",
          "type": "string"
        }
      ],
      "stateMutability": "nonpayable",
      "type": "constructor"
    },
    {
      "anonymous": false,
      "inputs": [
        {
          "indexed": true,
          "internalType": "address",
          "name": "owner",
          "type": "address"
        },
        {
          "indexed": true,
          "internalType": "address",
          "name": "approved",
          "type": "address"
        },
        {
          "indexed": true,
          "internalType": "uint256",
          "name": "tokenId",
          "type": "uint256"
        }
      ],
      "name": "Approval",
      "type": "event"
    },
    {
      "anonymous": false,
      "inputs": [
        {
          "indexed": true,
          "internalType": "address",
          "name": "owner",
          "type": "address"
        },
        {
          "indexed": true,
          "internalType": "address",
          "name": "operator",
          "type": "address"
        },
        {
          "indexed": false,
          "internalType": "bool",
          "name": "approved",
          "type": "bool"
        }
      ],
      "name": "ApprovalForAll",
      "type": "event"
    },
    {
      "anonymous": false,
      "inputs": [
        {
          "indexed": true,
          "internalType": "address",
          "name": "previousOwner",
          "type": "address"
        },
        {
          "indexed": true,
          "internalType": "address",
          "name": "newOwner",
          "type": "address"
        }
      ],
      "name": "OwnershipTransferred",
      "type": "event"
    },
    {
      "anonymous": false,
      "inputs": [
        {
          "indexed": true,
          "internalType": "address",
          "name": "from",
          "type": "address"
        },
        {
          "indexed": true,
          "internalType": "address",
          "name": "to",
          "type": "address"
        },
        {
          "indexed": true,
          "internalType": "uint256",
          "name": "tokenId",
          "type": "uint256"
        }
      ],
      "name": "Transfer",
      "type": "event"
    },
    {
      "inputs": [
        {
          "internalType": "address",
          "name": "to",
          "type": "address"
        },
        {
          "internalType": "uint256",
          "name": "tokenId",
          "type": "uint256"
        }
      ],
      "name": "approve",
      "outputs": [],
      "stateMutability": "nonpayable",
      "type": "function"
    },
    {
      "inputs": [
        {
          "internalType": "address",
          "name": "owner",
          "type": "address"
        }
      ],
      "name": "balanceOf",
      "outputs": [
        {
          "internalType": "uint256",
          "name": "",
          "type": "uint256"
        }
      ],
      "stateMutability": "view",
      "type": "function"
    },
    {
      "inputs": [],
      "name": "baseExtension",
      "outputs": [
        {
          "internalType": "string",
          "name": "",
          "type": "string"
        }
      ],
      "stateMutability": "view",
      "type": "function"
    },
    {
      "inputs": [],
      "name": "cost",
      "outputs": [
        {
          "internalType": "uint256",
          "name": "",
          "type": "uint256"
        }
      ],
      "stateMutability": "view",
      "type": "function"
    },
    {
      "inputs": [
        {
          "internalType": "uint256",
          "name": "tokenId",
          "type": "uint256"
        }
      ],
      "name": "getApproved",
      "outputs": [
        {
          "internalType": "address",
          "name": "",
          "type": "address"
        }
      ],
      "stateMutability": "view",
      "type": "function"
    },
    {
      "inputs": [
        {
          "internalType": "address",
          "name": "owner",
          "type": "address"
        },
        {
          "internalType": "address",
          "name": "operator",
          "type": "address"
        }
      ],
      "name": "isApprovedForAll",
      "outputs": [
        {
          "internalType": "bool",
          "name": "",
          "type": "bool"
        }
      ],
      "stateMutability": "view",
      "type": "function"
    },
    {
      "inputs": [],
      "name": "maxMintAmount",
      "outputs": [
        {
          "internalType": "uint256",
          "name": "",
          "type": "uint256"
        }
      ],
      "stateMutability": "view",
      "type": "function"
    },
    {
      "inputs": [],
      "name": "maxSupply",
      "outputs": [
        {
          "internalType": "uint256",
          "name": "",
          "type": "uint256"
        }
      ],
      "stateMutability": "view",
      "type": "function"
    },
    {
      "inputs": [],
      "name": "name",
      "outputs": [
        {
          "internalType": "string",
          "name": "",
          "type": "string"
        }
      ],
      "stateMutability": "view",
      "type": "function"
    },
    {
      "inputs": [],
      "name": "owner",
      "outputs": [
        {
          "internalType": "address",
          "name": "",
          "type": "address"
        }
      ],
      "stateMutability": "view",
      "type": "function"
    },
    {
      "inputs": [
        {
          "internalType": "uint256",
          "name": "tokenId",
          "type": "uint256"
        }
      ],
      "name": "ownerOf",
      "outputs": [
        {
          "internalType": "address",
          "name": "",
          "type": "address"
        }
      ],
      "stateMutability": "view",
      "type": "function"
    },
    {
      "inputs": [],
      "name": "paused",
      "outputs": [
        {
          "internalType": "bool",
          "name": "",
          "type": "bool"
        }
      ],
      "stateMutability": "view",
      "type": "function"
    },
    {
      "inputs": [],
      "name": "renounceOwnership",
      "outputs": [],
      "stateMutability": "nonpayable",
      "type": "function"
    },
    {
      "inputs": [
        {
          "internalType": "address",
          "name": "from",
          "type": "address"
        },
        {
          "internalType": "address",
          "name": "to",
          "type": "address"
        },
        {
          "internalType": "uint256",
          "name": "tokenId",
          "type": "uint256"
        }
      ],
      "name": "safeTransferFrom",
      "outputs": [],
      "stateMutability": "nonpayable",
      "type": "function"
    },
    {
      "inputs": [
        {
          "internalType": "address",
          "name": "from",
          "type": "address"
        },
        {
          "internalType": "address",
          "name": "to",
          "type": "address"
        },
        {
          "internalType": "uint256",
          "name": "tokenId",
          "type": "uint256"
        },
        {
          "internalType": "bytes",
          "name": "_data",
          "type": "bytes"
        }
      ],
      "name": "safeTransferFrom",
      "outputs": [],
      "stateMutability": "nonpayable",
      "type": "function"
    },
    {
      "inputs": [
        {
          "internalType": "address",
          "name": "operator",
          "type": "address"
        },
        {
          "internalType": "bool",
          "name": "approved",
          "type": "bool"
        }
      ],
      "name": "setApprovalForAll",
      "outputs": [],
      "stateMutability": "nonpayable",
      "type": "function"
    },
    {
      "inputs": [
        {
          "internalType": "bytes4",
          "name": "interfaceId",
          "type": "bytes4"
        }
      ],
      "name": "supportsInterface",
      "outputs": [
        {
          "internalType": "bool",
          "name": "",
          "type": "bool"
        }
      ],
      "stateMutability": "view",
      "type": "function"
    },
    {
      "inputs": [],
      "name": "symbol",
      "outputs": [
        {
          "internalType": "string",
          "name": "",
          "type": "string"
        }
      ],
      "stateMutability": "view",
      "type": "function"
    },
    {
      "inputs": [
        {
          "internalType": "uint256",
          "name": "index",
          "type": "uint256"
        }
      ],
      "name": "tokenByIndex",
      "outputs": [
        {
          "internalType": "uint256",
          "name": "",
          "type": "uint256"
        }
      ],
      "stateMutability": "view",
      "type": "function"
    },
    {
      "inputs": [
        {
          "internalType": "address",
          "name": "owner",
          "type": "address"
        },
        {
          "internalType": "uint256",
          "name": "index",
          "type": "uint256"
        }
      ],
      "name": "tokenOfOwnerByIndex",
      "outputs": [
        {
          "internalType": "uint256",
          "name": "",
          "type": "uint256"
        }
      ],
      "stateMutability": "view",
      "type": "function"
    },
    {
      "inputs": [
        {
          "internalType": "uint256",
          "name": "tokenId",
          "type": "uint256"
        }
      ],
      "name": "tokenURI",
      "outputs": [
        {
          "internalType": "string",
          "name": "",
          "type": "string"
        }
      ],
      "stateMutability": "view",
      "type": "function"
    },
    {
      "inputs": [],
      "name": "totalSupply",
      "outputs": [
        {
          "internalType": "uint256",
          "name": "",
          "type": "uint256"
        }
      ],
      "stateMutability": "view",
      "type": "function"
    },
    {
      "inputs": [
        {
          "internalType": "address",
          "name": "from",
          "type": "address"
        },
        {
          "internalType": "address",
          "name": "to",
          "type": "address"
        },
        {
          "internalType": "uint256",
          "name": "tokenId",
          "type": "uint256"
        }
      ],
      "name": "transferFrom",
      "outputs": [],
      "stateMutability": "nonpayable",
      "type": "function"
    },
    {
      "inputs": [
        {
          "internalType": "address",
          "name": "newOwner",
          "type": "address"
        }
      ],
      "name": "transferOwnership",
      "outputs": [],
      "stateMutability": "nonpayable",
      "type": "function"
    },
    {
      "inputs": [
        {
          "internalType": "uint256",
          "name": "_mintAmount",
          "type": "uint256"
        }
      ],
      "name": "mint",
      "outputs": [],
      "stateMutability": "payable",
      "type": "function"
    },
    {
      "inputs": [
        {
          "internalType": "uint256",
          "name": "_mintAmount",
          "type": "uint256"
        }
      ],
      "name": "mintByOwner",
      "outputs": [],
      "stateMutability": "nonpayable",
      "type": "function"
    },
    {
      "inputs": [
        {
          "internalType": "uint256",
          "name": "_newCost",
          "type": "uint256"
        }
      ],
      "name": "setCost",
      "outputs": [],
      "stateMutability": "nonpayable",
      "type": "function"
    },
    {
      "inputs": [
        {
          "internalType": "uint256",
          "name": "_newMaxMintAmount",
          "type": "uint256"
        }
      ],
      "name": "setMaxMintAmount",
      "outputs": [],
      "stateMutability": "nonpayable",
      "type": "function"
    },
    {
      "inputs": [
        {
          "internalType": "string",
          "name": "_newBaseURI",
          "type": "string"
        }
      ],
      "name": "setBaseURI",
      "outputs": [],
      "stateMutability": "nonpayable",
      "type": "function"
    },
    {
      "inputs": [
        {
          "internalType": "string",
          "name": "_newBaseExtension",
          "type": "string"
        }
      ],
      "name": "setBaseExtension",
      "outputs": [],
      "stateMutability": "nonpayable",
      "type": "function"
    },
    {
      "inputs": [
        {
          "internalType": "bool",
          "name": "_state",
          "type": "bool"
        }
      ],
      "name": "pause",
      "outputs": [],
      "stateMutability": "nonpayable",
      "type": "function"
    },
    {
      "inputs": [],
      "name": "withdraw",
      "outputs": [],
      "stateMutability": "payable",
      "type": "function"
    },
    {
      "inputs": [
        {
          "internalType": "address",
          "name": "_owner",
          "type": "address"
        }
      ],
      "name": "walletOfOwner",
      "outputs": [
        {
          "internalType": "uint256[]",
          "name": "",
          "type": "uint256[]"
        }
      ],
      "stateMutability": "view",
      "type": "function"
    }
  ],
  "bytecode": "0x60c06040526005608081905264173539b7b760d91b60a09081526200002891600c91906200013b565b5067011c37937e080000600d55612710600e55600a600f556010805460ff191690553480156200005757600080fd5b50604051620025d1380380620025d18339810160408190526200007a9162000294565b825183908390620000939060009060208501906200013b565b508051620000a99060019060208401906200013b565b505050620000c6620000c0620000e560201b60201c565b620000e9565b8051620000db90600b9060208401906200013b565b5050505062000374565b3390565b600a80546001600160a01b038381166001600160a01b0319831681179093556040519116919082907f8be0079c531659141344cd1fd0a4f28419497f9722a3daafe3b4186f6b6457e090600090a35050565b828054620001499062000321565b90600052602060002090601f0160209004810192826200016d5760008555620001b8565b82601f106200018857805160ff1916838001178555620001b8565b82800160010185558215620001b8579182015b82811115620001b85782518255916020019190600101906200019b565b50620001c6929150620001ca565b5090565b5b80821115620001c65760008155600101620001cb565b600082601f830112620001f2578081fd5b81516001600160401b03808211156200020f576200020f6200035e565b604051601f8301601f19908116603f011681019082821181831017156200023a576200023a6200035e565b8160405283815260209250868385880101111562000256578485fd5b8491505b838210156200027957858201830151818301840152908201906200025a565b838211156200028a57848385830101525b9695505050505050565b600080600060608486031215620002a9578283fd5b83516001600160401b0380821115620002c0578485fd5b620002ce87838801620001e1565b94506020860151915080821115620002e4578384fd5b620002f287838801620001e1565b9350604086015191508082111562000308578283fd5b506200031786828701620001e1565b9150509250925092565b600181811c908216806200033657607f821691505b602082108114156200035857634e487b7160e01b600052602260045260246000fd5b50919050565b634e487b7160e01b600052604160045260246000fd5b61224d80620003846000396000f3fe6080604052600436106101ee5760003560e01c80634f6ccce71161010d578063a0712d68116100a0578063c87b56dd1161006f578063c87b56dd14610552578063d5abeb0114610572578063da3ef23f14610588578063e985e9c5146105a8578063f2fde38b146105f157600080fd5b8063a0712d68146104ea578063a22cb465146104fd578063b88d4fde1461051d578063c66828621461053d57600080fd5b806370a08231116100dc57806370a0823114610482578063715018a6146104a25780638da5cb5b146104b757806395d89b41146104d557600080fd5b80634f6ccce71461040857806355f804b3146104285780635c975abb146104485780636352211e1461046257600080fd5b8063239c70ae116101855780633ccfd60b116101545780633ccfd60b1461039357806342842e0e1461039b578063438b6300146103bb57806344a0d68a146103e857600080fd5b8063239c70ae1461031d57806323b872dd146103335780632a944b19146103535780632f745c591461037357600080fd5b8063088a4ed0116101c1578063088a4ed0146102a4578063095ea7b3146102c457806313faede6146102e457806318160ddd1461030857600080fd5b806301ffc9a7146101f357806302329a291461022857806306fdde031461024a578063081812fc1461026c575b600080fd5b3480156101ff57600080fd5b5061021361020e366004611e6a565b610611565b60405190151581526020015b60405180910390f35b34801561023457600080fd5b50610248610243366004611e50565b61063c565b005b34801561025657600080fd5b5061025f610682565b60405161021f9190611fdc565b34801561027857600080fd5b5061028c610287366004611ee8565b610714565b6040516001600160a01b03909116815260200161021f565b3480156102b057600080fd5b506102486102bf366004611ee8565b6107a9565b3480156102d057600080fd5b506102486102df366004611e27565b6107d8565b3480156102f057600080fd5b506102fa600d5481565b60405190815260200161021f565b34801561031457600080fd5b506008546102fa565b34801561032957600080fd5b506102fa600f5481565b34801561033f57600080fd5b5061024861034e366004611d4a565b6108ee565b34801561035f57600080fd5b5061024861036e366004611ee8565b61091f565b34801561037f57600080fd5b506102fa61038e366004611e27565b610985565b610248610a1b565b3480156103a757600080fd5b506102486103b6366004611d4a565b610a9d565b3480156103c757600080fd5b506103db6103d6366004611cfe565b610ab8565b60405161021f9190611f98565b3480156103f457600080fd5b50610248610403366004611ee8565b610b76565b34801561041457600080fd5b506102fa610423366004611ee8565b610ba5565b34801561043457600080fd5b50610248610443366004611ea2565b610c46565b34801561045457600080fd5b506010546102139060ff1681565b34801561046e57600080fd5b5061028c61047d366004611ee8565b610c87565b34801561048e57600080fd5b506102fa61049d366004611cfe565b610cfe565b3480156104ae57600080fd5b50610248610d85565b3480156104c357600080fd5b50600a546001600160a01b031661028c565b3480156104e157600080fd5b5061025f610dbb565b6102486104f8366004611ee8565b610dca565b34801561050957600080fd5b50610248610518366004611dfe565b610e60565b34801561052957600080fd5b50610248610538366004611d85565b610f25565b34801561054957600080fd5b5061025f610f5d565b34801561055e57600080fd5b5061025f61056d366004611ee8565b610feb565b34801561057e57600080fd5b506102fa600e5481565b34801561059457600080fd5b506102486105a3366004611ea2565b6110c6565b3480156105b457600080fd5b506102136105c3366004611d18565b6001600160a01b03918216600090815260056020908152604080832093909416825291909152205460ff1690565b3480156105fd57600080fd5b5061024861060c366004611cfe565b611103565b60006001600160e01b0319821663780e9d6360e01b148061063657506106368261119b565b92915050565b600a546001600160a01b0316331461066f5760405162461bcd60e51b815260040161066690612041565b60405180910390fd5b6010805460ff1916911515919091179055565b60606000805461069190612155565b80601f01602080910402602001604051908101604052809291908181526020018280546106bd90612155565b801561070a5780601f106106df5761010080835404028352916020019161070a565b820191906000526020600020905b8154815290600101906020018083116106ed57829003601f168201915b5050505050905090565b6000818152600260205260408120546001600160a01b031661078d5760405162461bcd60e51b815260206004820152602c60248201527f4552433732313a20617070726f76656420717565727920666f72206e6f6e657860448201526b34b9ba32b73a103a37b5b2b760a11b6064820152608401610666565b506000908152600460205260409020546001600160a01b031690565b600a546001600160a01b031633146107d35760405162461bcd60e51b815260040161066690612041565b600f55565b60006107e382610c87565b9050806001600160a01b0316836001600160a01b031614156108515760405162461bcd60e51b815260206004820152602160248201527f4552433732313a20617070726f76616c20746f2063757272656e74206f776e656044820152603960f91b6064820152608401610666565b336001600160a01b038216148061086d575061086d81336105c3565b6108df5760405162461bcd60e51b815260206004820152603860248201527f4552433732313a20617070726f76652063616c6c6572206973206e6f74206f7760448201527f6e6572206e6f7220617070726f76656420666f7220616c6c00000000000000006064820152608401610666565b6108e983836111eb565b505050565b6108f83382611259565b6109145760405162461bcd60e51b815260040161066690612076565b6108e9838383611350565b600a546001600160a01b031633146109495760405162461bcd60e51b815260040161066690612041565b600061095460085490565b905060015b8281116108e9576109733361096e83856120c7565b6114fb565b8061097d81612190565b915050610959565b600061099083610cfe565b82106109f25760405162461bcd60e51b815260206004820152602b60248201527f455243373231456e756d657261626c653a206f776e657220696e646578206f7560448201526a74206f6620626f756e647360a81b6064820152608401610666565b506001600160a01b03919091166000908152600660209081526040808320938352929052205490565b600a546001600160a01b03163314610a455760405162461bcd60e51b815260040161066690612041565b604051600090339047908381818185875af1925050503d8060008114610a87576040519150601f19603f3d011682016040523d82523d6000602084013e610a8c565b606091505b5050905080610a9a57600080fd5b50565b6108e983838360405180602001604052806000815250610f25565b60606000610ac583610cfe565b905060008167ffffffffffffffff811115610af057634e487b7160e01b600052604160045260246000fd5b604051908082528060200260200182016040528015610b19578160200160208202803683370190505b50905060005b82811015610b6e57610b318582610985565b828281518110610b5157634e487b7160e01b600052603260045260246000fd5b602090810291909101015280610b6681612190565b915050610b1f565b509392505050565b600a546001600160a01b03163314610ba05760405162461bcd60e51b815260040161066690612041565b600d55565b6000610bb060085490565b8210610c135760405162461bcd60e51b815260206004820152602c60248201527f455243373231456e756d657261626c653a20676c6f62616c20696e646578206f60448201526b7574206f6620626f756e647360a01b6064820152608401610666565b60088281548110610c3457634e487b7160e01b600052603260045260246000fd5b90600052602060002001549050919050565b600a546001600160a01b03163314610c705760405162461bcd60e51b815260040161066690612041565b8051610c8390600b906020840190611bc3565b5050565b6000818152600260205260408120546001600160a01b0316806106365760405162461bcd60e51b815260206004820152602960248201527f4552433732313a206f776e657220717565727920666f72206e6f6e657869737460448201526832b73a103a37b5b2b760b91b6064820152608401610666565b60006001600160a01b038216610d695760405162461bcd60e51b815260206004820152602a60248201527f4552433732313a2062616c616e636520717565727920666f7220746865207a65604482015269726f206164647265737360b01b6064820152608401610666565b506001600160a01b031660009081526003602052604090205490565b600a546001600160a01b03163314610daf5760405162461bcd60e51b815260040161066690612041565b610db96000611515565b565b60606001805461069190612155565b6000610dd560085490565b60105490915060ff1615610de857600080fd5b60008211610df557600080fd5b600f54821115610e0457600080fd5b600e54610e1183836120c7565b1115610e1c57600080fd5b81600d54610e2a91906120f3565b341015610e3657600080fd5b60015b8281116108e957610e4e3361096e83856120c7565b80610e5881612190565b915050610e39565b6001600160a01b038216331415610eb95760405162461bcd60e51b815260206004820152601960248201527f4552433732313a20617070726f766520746f2063616c6c6572000000000000006044820152606401610666565b3360008181526005602090815260408083206001600160a01b03871680855290835292819020805460ff191686151590811790915590519081529192917f17307eab39ab6107e8899845ad3d59bd9653f200f220920489ca2b5937696c31910160405180910390a35050565b610f2f3383611259565b610f4b5760405162461bcd60e51b815260040161066690612076565b610f5784848484611567565b50505050565b600c8054610f6a90612155565b80601f0160208091040260200160405190810160405280929190818152602001828054610f9690612155565b8015610fe35780601f10610fb857610100808354040283529160200191610fe3565b820191906000526020600020905b815481529060010190602001808311610fc657829003601f168201915b505050505081565b6000818152600260205260409020546060906001600160a01b031661106a5760405162461bcd60e51b815260206004820152602f60248201527f4552433732314d657461646174613a2055524920717565727920666f72206e6f60448201526e3732bc34b9ba32b73a103a37b5b2b760891b6064820152608401610666565b600061107461159a565b9050600081511161109457604051806020016040528060008152506110bf565b8061109e846115a9565b6040516020016110af929190611f2c565b6040516020818303038152906040525b9392505050565b600a546001600160a01b031633146110f05760405162461bcd60e51b815260040161066690612041565b8051610c8390600c906020840190611bc3565b600a546001600160a01b0316331461112d5760405162461bcd60e51b815260040161066690612041565b6001600160a01b0381166111925760405162461bcd60e51b815260206004820152602660248201527f4f776e61626c653a206e6577206f776e657220697320746865207a65726f206160448201526564647265737360d01b6064820152608401610666565b610a9a81611515565b60006001600160e01b031982166380ac58cd60e01b14806111cc57506001600160e01b03198216635b5e139f60e01b145b8061063657506301ffc9a760e01b6001600160e01b0319831614610636565b600081815260046020526040902080546001600160a01b0319166001600160a01b038416908117909155819061122082610c87565b6001600160a01b03167f8c5be1e5ebec7d5bd14f71427d1e84f3dd0314c0f7b2291e5b200ac8c7c3b92560405160405180910390a45050565b6000818152600260205260408120546001600160a01b03166112d25760405162461bcd60e51b815260206004820152602c60248201527f4552433732313a206f70657261746f7220717565727920666f72206e6f6e657860448201526b34b9ba32b73a103a37b5b2b760a11b6064820152608401610666565b60006112dd83610c87565b9050806001600160a01b0316846001600160a01b031614806113185750836001600160a01b031661130d84610714565b6001600160a01b0316145b8061134857506001600160a01b0380821660009081526005602090815260408083209388168352929052205460ff165b949350505050565b826001600160a01b031661136382610c87565b6001600160a01b0316146113cb5760405162461bcd60e51b815260206004820152602960248201527f4552433732313a207472616e73666572206f6620746f6b656e2074686174206960448201526839903737ba1037bbb760b91b6064820152608401610666565b6001600160a01b03821661142d5760405162461bcd60e51b8152602060048201526024808201527f4552433732313a207472616e7366657220746f20746865207a65726f206164646044820152637265737360e01b6064820152608401610666565b6114388383836116c3565b6114436000826111eb565b6001600160a01b038316600090815260036020526040812080546001929061146c908490612112565b90915550506001600160a01b038216600090815260036020526040812080546001929061149a9084906120c7565b909155505060008181526002602052604080822080546001600160a01b0319166001600160a01b0386811691821790925591518493918716917fddf252ad1be2c89b69c2b068fc378daa952ba7f163c4a11628f55a4df523b3ef91a4505050565b610c8382826040518060200160405280600081525061177b565b600a80546001600160a01b038381166001600160a01b0319831681179093556040519116919082907f8be0079c531659141344cd1fd0a4f28419497f9722a3daafe3b4186f6b6457e090600090a35050565b611572848484611350565b61157e848484846117ae565b610f575760405162461bcd60e51b815260040161066690611fef565b6060600b805461069190612155565b6060816115cd5750506040805180820190915260018152600360fc1b602082015290565b8160005b81156115f757806115e181612190565b91506115f09050600a836120df565b91506115d1565b60008167ffffffffffffffff81111561162057634e487b7160e01b600052604160045260246000fd5b6040519080825280601f01601f19166020018201604052801561164a576020820181803683370190505b5090505b84156113485761165f600183612112565b915061166c600a866121ab565b6116779060306120c7565b60f81b81838151811061169a57634e487b7160e01b600052603260045260246000fd5b60200101906001600160f81b031916908160001a9053506116bc600a866120df565b945061164e565b6001600160a01b03831661171e5761171981600880546000838152600960205260408120829055600182018355919091527ff3f7a9fe364faab93b216da50a3214154f22a0a2b415b23a84c8169e8b636ee30155565b611741565b816001600160a01b0316836001600160a01b0316146117415761174183826118bb565b6001600160a01b038216611758576108e981611958565b826001600160a01b0316826001600160a01b0316146108e9576108e98282611a31565b6117858383611a75565b61179260008484846117ae565b6108e95760405162461bcd60e51b815260040161066690611fef565b60006001600160a01b0384163b156118b057604051630a85bd0160e11b81526001600160a01b0385169063150b7a02906117f2903390899088908890600401611f5b565b602060405180830381600087803b15801561180c57600080fd5b505af192505050801561183c575060408051601f3d908101601f1916820190925261183991810190611e86565b60015b611896573d80801561186a576040519150601f19603f3d011682016040523d82523d6000602084013e61186f565b606091505b50805161188e5760405162461bcd60e51b815260040161066690611fef565b805181602001fd5b6001600160e01b031916630a85bd0160e11b149050611348565b506001949350505050565b600060016118c884610cfe565b6118d29190612112565b600083815260076020526040902054909150808214611925576001600160a01b03841660009081526006602090815260408083208584528252808320548484528184208190558352600790915290208190555b5060009182526007602090815260408084208490556001600160a01b039094168352600681528383209183525290812055565b60085460009061196a90600190612112565b600083815260096020526040812054600880549394509092849081106119a057634e487b7160e01b600052603260045260246000fd5b9060005260206000200154905080600883815481106119cf57634e487b7160e01b600052603260045260246000fd5b6000918252602080832090910192909255828152600990915260408082208490558582528120556008805480611a1557634e487b7160e01b600052603160045260246000fd5b6001900381819060005260206000200160009055905550505050565b6000611a3c83610cfe565b6001600160a01b039093166000908152600660209081526040808320868452825280832085905593825260079052919091209190915550565b6001600160a01b038216611acb5760405162461bcd60e51b815260206004820181905260248201527f4552433732313a206d696e7420746f20746865207a65726f20616464726573736044820152606401610666565b6000818152600260205260409020546001600160a01b031615611b305760405162461bcd60e51b815260206004820152601c60248201527f4552433732313a20746f6b656e20616c7265616479206d696e746564000000006044820152606401610666565b611b3c600083836116c3565b6001600160a01b0382166000908152600360205260408120805460019290611b659084906120c7565b909155505060008181526002602052604080822080546001600160a01b0319166001600160a01b03861690811790915590518392907fddf252ad1be2c89b69c2b068fc378daa952ba7f163c4a11628f55a4df523b3ef908290a45050565b828054611bcf90612155565b90600052602060002090601f016020900481019282611bf15760008555611c37565b82601f10611c0a57805160ff1916838001178555611c37565b82800160010185558215611c37579182015b82811115611c37578251825591602001919060010190611c1c565b50611c43929150611c47565b5090565b5b80821115611c435760008155600101611c48565b600067ffffffffffffffff80841115611c7757611c776121eb565b604051601f8501601f19908116603f01168101908282118183101715611c9f57611c9f6121eb565b81604052809350858152868686011115611cb857600080fd5b858560208301376000602087830101525050509392505050565b80356001600160a01b0381168114611ce957600080fd5b919050565b80358015158114611ce957600080fd5b600060208284031215611d0f578081fd5b6110bf82611cd2565b60008060408385031215611d2a578081fd5b611d3383611cd2565b9150611d4160208401611cd2565b90509250929050565b600080600060608486031215611d5e578081fd5b611d6784611cd2565b9250611d7560208501611cd2565b9150604084013590509250925092565b60008060008060808587031215611d9a578081fd5b611da385611cd2565b9350611db160208601611cd2565b925060408501359150606085013567ffffffffffffffff811115611dd3578182fd5b8501601f81018713611de3578182fd5b611df287823560208401611c5c565b91505092959194509250565b60008060408385031215611e10578182fd5b611e1983611cd2565b9150611d4160208401611cee565b60008060408385031215611e39578182fd5b611e4283611cd2565b946020939093013593505050565b600060208284031215611e61578081fd5b6110bf82611cee565b600060208284031215611e7b578081fd5b81356110bf81612201565b600060208284031215611e97578081fd5b81516110bf81612201565b600060208284031215611eb3578081fd5b813567ffffffffffffffff811115611ec9578182fd5b8201601f81018413611ed9578182fd5b61134884823560208401611c5c565b600060208284031215611ef9578081fd5b5035919050565b60008151808452611f18816020860160208601612129565b601f01601f19169290920160200192915050565b60008351611f3e818460208801612129565b835190830190611f52818360208801612129565b01949350505050565b6001600160a01b0385811682528416602082015260408101839052608060608201819052600090611f8e90830184611f00565b9695505050505050565b6020808252825182820181905260009190848201906040850190845b81811015611fd057835183529284019291840191600101611fb4565b50909695505050505050565b6020815260006110bf6020830184611f00565b60208082526032908201527f4552433732313a207472616e7366657220746f206e6f6e20455243373231526560408201527131b2b4bb32b91034b6b83632b6b2b73a32b960711b606082015260800190565b6020808252818101527f4f776e61626c653a2063616c6c6572206973206e6f7420746865206f776e6572604082015260600190565b60208082526031908201527f4552433732313a207472616e736665722063616c6c6572206973206e6f74206f6040820152701ddb995c881b9bdc88185c1c1c9bdd9959607a1b606082015260800190565b600082198211156120da576120da6121bf565b500190565b6000826120ee576120ee6121d5565b500490565b600081600019048311821515161561210d5761210d6121bf565b500290565b600082821015612124576121246121bf565b500390565b60005b8381101561214457818101518382015260200161212c565b83811115610f575750506000910152565b600181811c9082168061216957607f821691505b6020821081141561218a57634e487b7160e01b600052602260045260246000fd5b50919050565b60006000198214156121a4576121a46121bf565b5060010190565b6000826121ba576121ba6121d5565b500690565b634e487b7160e01b600052601160045260246000fd5b634e487b7160e01b600052601260045260246000fd5b634e487b7160e01b600052604160045260246000fd5b6001600160e01b031981168114610a9a57600080fdfea2646970667358221220f1778a0f1aee558b6f2b222ab0838536f100dc0a0b2b68b929edfd4d99d2248a64736f6c63430008040033",
  "immutableReferences": {},
  "source": "// SPDX-License-Identifier: MIT\n\npragma solidity >=0.7.0 <0.9.0;\n\nimport \"@openzeppelin/contracts/token/ERC721/extensions/ERC721Enumerable.sol\";\nimport \"@openzeppelin/contracts/access/Ownable.sol\";\n\ncontract SmartContract is ERC721Enumerable, Ownable {\n  using Strings for uint256;\n\n  string baseURI;\n  string public baseExtension = \".json\";\n\n  uint256 public cost = 0.08 ether;\n  uint256 public maxSupply = 10000;\n  uint256 public maxMintAmount = 10;\n\n  bool public paused = false;\n\n  constructor(\n    string memory _name,\n    string memory _symbol,\n    string memory _initBaseURI\n  ) ERC721(_name, _symbol) {\n    baseURI = _initBaseURI;\n  }\n\n  function mint(uint256 _mintAmount) external payable {\n    uint256 supply = totalSupply();\n    require(!paused);\n    require(_mintAmount > 0);\n    require(_mintAmount <= maxMintAmount);\n    require(supply + _mintAmount <= maxSupply);\n    require(msg.value >= cost * _mintAmount);\n    // removed check here for less gas on user side\n\n    for (uint256 i = 1; i <= _mintAmount; i++) {\n      _safeMint(msg.sender, supply + i);\n    }\n  }\n\n  function mintByOwner(uint256 _mintAmount) external onlyOwner {\n    uint256 supply = totalSupply();\n\n    for (uint256 i = 1; i <= _mintAmount; i++) {\n      _safeMint(msg.sender, supply + i);\n    }\n  }\n\n  function setCost(uint256 _newCost) external onlyOwner {\n    cost = _newCost;\n  }\n\n  function setMaxMintAmount(uint256 _newMaxMintAmount) external onlyOwner {\n    maxMintAmount = _newMaxMintAmount;\n  }\n\n  /// @dev just set new base uri when reveal happens\n  function setBaseURI(string memory _newBaseURI) external onlyOwner {\n    baseURI = _newBaseURI;\n  }\n\n  function setBaseExtension(string memory _newBaseExtension) external onlyOwner {\n    baseExtension = _newBaseExtension;\n  }\n\n  function pause(bool _state) external onlyOwner {\n    paused = _state;\n  }\n\n  function withdraw() external payable onlyOwner {\n    (bool success, ) = payable(msg.sender).call{ value: address(this).balance }(\"\");\n    require(success);\n  }\n\n  // view and pure go last\n  function walletOfOwner(address _owner) external view returns (uint256[] memory) {\n    uint256 ownerTokenCount = balanceOf(_owner);\n    uint256[] memory tokenIds = new uint256[](ownerTokenCount);\n    for (uint256 i; i < ownerTokenCount; i++) {\n      tokenIds[i] = tokenOfOwnerByIndex(_owner, i);\n    }\n    return tokenIds;\n  }\n\n  function _baseURI() internal view virtual override returns (string memory) {\n    return baseURI;\n  }\n}",
  "sourcePath": "/home/pirate/Desktop/MintingStationDApp-main/contracts/SmartContract.sol",
  "compiler": {
    "name": "solc",
    "version": "0.8.4+commit.c7e474f2.Emscripten.clang"
  },
  "schemaVersion": "3.4.3",
  "updatedAt": "2021-11-02T16:11:43.548Z",
  "devdoc": {
    "kind": "dev",
    "methods": {
      "approve(address,uint256)": {
        "details": "See {IERC721-approve}."
      },
      "balanceOf(address)": {
        "details": "See {IERC721-balanceOf}."
      },
      "getApproved(uint256)": {
        "details": "See {IERC721-getApproved}."
      },
      "isApprovedForAll(address,address)": {
        "details": "See {IERC721-isApprovedForAll}."
      },
      "name()": {
        "details": "See {IERC721Metadata-name}."
      },
      "owner()": {
        "details": "Returns the address of the current owner."
      },
      "ownerOf(uint256)": {
        "details": "See {IERC721-ownerOf}."
      },
      "renounceOwnership()": {
        "details": "Leaves the contract without owner. It will not be possible to call `onlyOwner` functions anymore. Can only be called by the current owner. NOTE: Renouncing ownership will leave the contract without an owner, thereby removing any functionality that is only available to the owner."
      },
      "safeTransferFrom(address,address,uint256)": {
        "details": "See {IERC721-safeTransferFrom}."
      },
      "safeTransferFrom(address,address,uint256,bytes)": {
        "details": "See {IERC721-safeTransferFrom}."
      },
      "setApprovalForAll(address,bool)": {
        "details": "See {IERC721-setApprovalForAll}."
      },
      "setBaseURI(string)": {
        "details": "just set new base uri when reveal happens"
      },
      "supportsInterface(bytes4)": {
        "details": "See {IERC165-supportsInterface}."
      },
      "symbol()": {
        "details": "See {IERC721Metadata-symbol}."
      },
      "tokenByIndex(uint256)": {
        "details": "See {IERC721Enumerable-tokenByIndex}."
      },
      "tokenOfOwnerByIndex(address,uint256)": {
        "details": "See {IERC721Enumerable-tokenOfOwnerByIndex}."
      },
      "tokenURI(uint256)": {
        "details": "See {IERC721Metadata-tokenURI}."
      },
      "totalSupply()": {
        "details": "See {IERC721Enumerable-totalSupply}."
      },
      "transferFrom(address,address,uint256)": {
        "details": "See {IERC721-transferFrom}."
      },
      "transferOwnership(address)": {
        "details": "Transfers ownership of the contract to a new account (`newOwner`). Can only be called by the current owner."
      }
    },
    "version": 1
  },
  "userdoc": {
    "kind": "user",
    "methods": {},
    "version": 1
  }
}